:100000000C9472000C9491000C9491000C9491004B
:100010000C9491000C9491000C9491000C9491001C
:100020000C9491000C9491000C9491000C9491000C
:100030000C9491000C940A010C9491000C94910082
:100040000C9491000C9491000C9491000C949100EC
:100050000C9491000C9491000C9491000C949100DC
:100060000C9491000C9491000C9491000C949100CC
:100070000C9491000C9491000C9491000C949100BC
:100080000C9491000C9491000C949100AD02BD026F
:10009000CD02DD02ED02FD020D031D032D033D0324
:1000A0004D035D036D037C0495039F03B503CB03F0
:1000B000DE03E803FE0314042A0440045304660428
:1000C0009F04A404A904AE04B304B804BD04C2048C
:1000D000C7044E05E404F104FE040B0518052505CC
:1000E00032053F0511241FBECFEFD0E4DEBFCDBFE8
:1000F00011E0A0E0B1E0ECEDFEE000E00BBF02C0DB
:1001000007900D92AC32B107D9F721E0ACE2B1E033
:1001100001C01D92A435B207E1F70E94A3050C941B
:100120006C070C940000CF93DF9300D01F92CDB7E3
:10013000DEB789837B836A8389818A3031F48A813F
:100140009B81BC018DE00E94930080EC90E0FC015B
:100150008081882F90E080729927892BB1F386ECFB
:1001600090E02981FC01208380E090E00F900F90C7
:100170000F90DF91CF910895CF93DF93CDB7DEB786
:1001800081E890E02BE0FC01208388E890E02DE7F7
:1001900030E0FC01318320838FE690E022E0FC0117
:1001A000208384E890E0FC011182108280910E018E
:1001B00090910F01A0911001B091110180932D0138
:1001C00090932E01A0932F01B09330018FE590E022
:1001D0002FE530E0F90120812068FC012083000038
:1001E000DF91CF910895CF93DF93CDB7DEB781E84C
:1001F00090E0FC0110820000DF91CF910895CF9331
:10020000DF93CDB7DEB781E080932C010000DF9152
:10021000CF9108951F920F9200905F000F921124CA
:1002200000905B000F922F933F934F935F936F93D8
:100230007F938F939F93AF93BF93EF93FF93CF934E
:10024000DF93CDB7DEB780912D0190912E01A09163
:100250002F01B09130010197A109B10980932D01BF
:1002600090932E01A0932F01B093300180912D0126
:1002700090912E01A0912F01B0913001892B8A2BF2
:100280008B2B91F40E94FF0080910E0190910F0141
:10029000A0911001B091110180932D0190932E0136
:1002A000A0932F01B09330010000DF91CF91FF9117
:1002B000EF91BF91AF919F918F917F916F915F91DE
:1002C0004F913F912F910F9000925B000F90009201
:1002D0005F000F901F901895CF93DF9300D000D050
:1002E000CDB7DEB769837A838B839C8389819A81BA
:1002F000AB81BC8180930E0190930F01A0931001FC
:10030000B093110180910E0190910F01A091100105
:10031000B091110180932D0190932E01A0932F0194
:10032000B093300100000F900F900F900F90DF916D
:10033000CF910895CF93DF9300D000D01F92CDB717
:10034000DEB79D838C831B8280E290E0FC0180817C
:1003500080958B838C819D818130910589F08230DD
:1003600091051CF4892B39F028C082309105A1F049
:100370000397B9F022C081E090E09D838C8323C075
:100380008B81882F90E081709927892BC9F082E0BA
:1003900090E09D838C8314C083E090E09D838C83E8
:1003A00012C08B81882F90E081709927892B51F49E
:1003B00081E090E09D838C8305C01D821C8203C078
:1003C000000001C000008C819D818130910509F4FD
:1003D00097C08230910524F4892B09F493C097C00B
:1003E0008230910521F0039709F48EC090C080916E
:1003F000310190913201049708F58091310190917B
:100400003201865E9E4FFC019081809122019817F7
:1004100009F07CC080913101909132010196909356
:10042000320180933101809131019091320120910C
:100430002401865E9E4FFC01208368C080913101BB
:1004400090913201049738F18091310190913201FD
:10045000079708F58091310190913201865E9E4F99
:10046000FC01908180912301981709F048C0809188
:1004700031019091320101969093320180933101C4
:10048000809131019091320120912501865E9E4F2D
:10049000FC01208334C08091310190913201079793
:1004A000A8F18091310190913201865E9E4FFC014E
:1004B000908180912301981749F510923201109292
:1004C00031011A8219820CC089819A81865E9E4F01
:1004D0002FEFFC01208389819A8101969A83898379
:1004E00089819A81089780F380913101909132013E
:1004F00020912401865E9E4FFC01208307C006C028
:10050000000005C0000003C0000001C000008C8195
:100510009D810F900F900F900F900F90DF91CF91D2
:100520000895CF93DF9300D0CDB7DEB79A83898348
:1005300089819A81092E000CAA0BBB0B40E050E088
:100540002CE030E0841B950B2817390708F4D5C040
:100550008A5B9F4FFC010C9463078091310190915D
:100560003201049728F085E090E09A838983C8C01F
:1005700081E090E09A838983C3C08091310190919A
:100580003201049728F085E090E09A838983B8C00F
:1005900082E090E09A838983B3C080913101909189
:1005A0003201049728F085E090E09A838983A8C0FF
:1005B00083E090E09A838983A3C080913101909178
:1005C0003201049728F085E090E09A83898398C0EF
:1005D00084E090E09A83898393C080913101909167
:1005E0003201049728F085E090E09A83898388C0DF
:1005F00081E090E09A83898383C08091310190915A
:100600003201049728F481E090E09A83898378C0CE
:1006100086E090E09A83898373C080913101909144
:100620003201049728F481E090E09A83898368C0BE
:1006300087E090E09A83898363C080913101909133
:100640003201049728F481E090E09A83898358C0AE
:1006500088E090E09A83898353C080913101909122
:100660003201049728F481E090E09A83898348C09E
:1006700089E090E09A83898343C080913101909111
:100680003201049728F481E090E09A83898338C08E
:100690008AE090E09A83898333C080913101909100
:1006A0003201049728F481E090E09A83898328C07E
:1006B0008BE090E09A83898323C0809131019091EF
:1006C0003201049728F481E090E09A83898318C06E
:1006D0008CE090E09A83898313C0809131019091DE
:1006E0003201049728F481E090E09A83898308C05E
:1006F00085E090E09A83898303C01A821982000002
:1007000089819A81092E000CAA0BBB0B40E050E0B6
:100710002CE030E0841B950B2817390708F4E9C05A
:100720008D5A9F4FFC010C94630780913101909189
:100730003201865E9E4F28EFFC012083DEC080914F
:100740003101909132012091310130913201265EC8
:100750003E4FF9012081222F30E0220F331F21600C
:10076000865E9E4FFC012083C8C08091310190912C
:1007700032012091310130913201265E3E4FF90164
:100780002081222F30E0220F331F2160865E9E4F92
:10079000FC012083B2C080913101909132012091FF
:1007A000310130913201265E3E4FF90120812695BC
:1007B0002061865E9E4FFC0120839FC080913101A5
:1007C00090913201865E9E4F2EEFFC01208395C0F2
:1007D00080913101909132012091310130913201AB
:1007E000265E3E4FF9012081222F30E0220F331F79
:1007F0002160865E9E4FFC0120837FC08091310185
:10080000909132012091310130913201265E3E4FAC
:10081000F9012081222F30E0220F331F2160865EF4
:100820009E4FFC01208369C080913101909132017B
:100830002091310130913201265E3E4FF901208135
:10084000222F30E0220F331F2160865E9E4FFC0175
:10085000208353C080913101909132012091310168
:1008600030913201265E3E4FF9012081222F30E087
:10087000220F331F2160865E9E4FFC0120833DC006
:1008800080913101909132012091310130913201FA
:10089000265E3E4FF901208126952068865E9E4F98
:1008A000FC0120832AC08091310190913201209176
:1008B000310130913201265E3E4FF90120812695AB
:1008C0002068865E9E4FFC01208317C08091310115
:1008D000909132012091310130913201265E3E4FDC
:1008E000F901208126952068865E9E4FFC012083B9
:1008F00004C01A82198201C0000089819A810F9078
:100900000F90DF91CF910895CF93DF9300D0CDB7B3
:10091000DEB79A83898389819A81092E000CAA0BFC
:10092000BB0B40E050E028E030E0841B950B28171B
:10093000390790F1805A9F4FFC010C94630781E0C6
:1009400090E09A8389832BC082E090E09A83898328
:1009500026C083E090E09A83898321C084E090E000
:100960009A8389831CC085E090E09A83898317C0AD
:1009700086E090E09A83898312C087E090E09A83B2
:1009800089830DC088E090E09A83898308C081E064
:1009900090E09A83898303C01A82198200008981BA
:1009A0009A81092E000CAA0BBB0B40E050E028E016
:1009B00030E0841B950B2817390708F46DC0875960
:1009C0009F4FFC010C94630788E290E02091120194
:1009D000FC0120838BE290E020911A01FC0120832E
:1009E0005EC088E290E020911301FC0120838BE23D
:1009F00090E020911B01FC01208351C088E290E02F
:100A000020911401FC0120838BE290E020911C01D5
:100A1000FC01208344C088E290E020911501FC0194
:100A200020838BE290E020911D01FC01208337C0E0
:100A300088E290E020911601FC0120838BE290E097
:100A400020911E01FC0120832AC088E290E02091C1
:100A50001701FC0120838BE290E020911F01FC0133
:100A600020831DC088E290E020911801FC012083C2
:100A70008BE290E020912001FC01208310C088E2ED
:100A800090E020911901FC0120838BE290E02091FD
:100A90002101FC01208303C0000001C00000898106
:100AA0009A810F900F90DF91CF910895CF93DF93AC
:100AB000CDB7DEB72C970FB6F894DEBF0FBECDBF13
:100AC0006D837E838F83988729873A874B875C87DE
:100AD0008D819E81AF81B88529853A854B855C855E
:100AE000BC01CD010E944107DC01CB0189839A83BF
:100AF000AB83BC8389819A81AB81BC81892B8A2B92
:100B00008B2B29F489859A85AB85BC8511C0898595
:100B10009A85AB85BC858D839E83AF83B887898199
:100B20009A81AB81BC8189879A87AB87BC87D0CFFC
:100B3000BC01CD012C960FB6F894DEBF0FBECDBF21
:100B4000DF91CF9108950F931F93CF93DF93CDB78C
:100B5000DEB72F970FB6F894DEBF0FBECDBF81E290
:100B600090E0FC01108282E290E02FEFFC012083F4
:100B70008AE290E02FEFFC0120838BE290E0FC0101
:100B8000108287E290E02FEFFC01208388E290E062
:100B9000FC01108286E0E6E2F1E0DE011A960190A7
:100BA0000D928A95E1F783E090E098878F838FEF2D
:100BB000898789858093330180E991E0A0E0B0E0E6
:100BC0008093340190933501A0933601B09337019F
:100BD0008091340190913501A0913601B091370197
:100BE0008093380190933901A0933A01B0933B016F
:100BF00081E992E090933D0180933C018985809347
:100C00003E0181E090E0A0E0B0E080933F0190934E
:100C10004001A0934101B093420180913F01909126
:100C20004001A0914101B091420180934301909312
:100C30004401A0934501B093460184E894E0909369
:100C400048018093470189858093490181E090E0C4
:100C5000A0E0B0E080934A0190934B01A0934C0137
:100C6000B0934D0180914A0190914B01A0914C01AC
:100C7000B0914D0180934E0190934F01A09350018C
:100C8000B09351018AE991E090935301809352010E
:100C90008A859B85FC0181819281A381B4818B83AC
:100CA0009C83AD83BE8381E090E09A83898325C0D5
:100CB00089819A81880F991F9E012F5F3F4F820F74
:100CC000931F0996FC0180819181FC012181328171
:100CD000438154818B819C81AD81BE81BC01CD015A
:100CE0000E945605DC01CB018B839C83AD83BE83C0
:100CF00089819A8101969A83898329813A818F819A
:100D0000988528173907A0F28B819C81AD81BE811F
:100D1000BC01CD010E946C010E94BC001A821982A4
:100D2000A0C089819A81880F991F9E012F5F3F4F34
:100D3000820F931F0996FC0180819181FC0125811E
:100D400036814781508589819A81880F991FBE011C
:100D50006F5F7F4F860F971F0996FC0180819181FD
:100D6000FC0181819281A381B481281739074A0748
:100D70005B0709F045C089819A81880F991F9E0100
:100D80002F5F3F4F820F931F0996FC010081118155
:100D900089819A81880F991F9E012F5F3F4F820F93
:100DA000931F0996FC0180819181FC012185328588
:100DB00089819A81880F991FAE014F5F5F4F840F21
:100DC000951F0996FC0180819181FC018081082E8C
:100DD000000C990BF9010995F801808389819A81AA
:100DE000880F991F9E012F5F3F4F820F931F099617
:100DF000FC0180819181FC01158216821782108688
:100E000089819A81880F991F9E012F5F3F4F820F22
:100E1000931F0996FC016081718189819A81880FF5
:100E2000991F9E012F5F3F4F820F931F0996FC0170
:100E300080819181FC0125813681478150858B819C
:100E40009C81AD81BE81820F931FA41FB51FFB0142
:100E500085839683A783B08789819A8101969A8337
:100E6000898329813A818F8198852817390708F469
:100E700058CF000080912C018823E1F310922C01BF
:100E80004DCFA1E21A2EAA1BBB1BFD010DC0AA1F4C
:100E9000BB1FEE1FFF1FA217B307E407F50720F0E3
:100EA000A21BB30BE40BF50B661F771F881F991F5E
:100EB0001A9469F760957095809590959B01AC01A7
:100EC000BD01CF010895EE0FFF1F0024001C0BBED3
:0C0ED0000790F691E02D0994F894FFCFF4
:100EDC000000000200000000930000000000010070
:100EEC0000008040201008040201FFFFFFFFFFFFFD
:0C0EFC00FFFFF1FBF8FE33013E0149014D
:00000001FF
