:100000000C9472000C9491000C9491000C9491004B
:100010000C9491000C9491000C9491000C9491001C
:100020000C9491000C9491000C9491000C9491000C
:100030000C9491000C940A010C9491000C94910082
:100040000C9491000C9491000C9491000C949100EC
:100050000C9491000C9491000C9491000C949100DC
:100060000C9491000C9491000C9491000C949100CC
:100070000C9491000C9491000C9491000C949100BC
:100080000C9491000C9491000C949100D002E00229
:10009000FF021E033D035C037B039A03B903D803ED
:1000A000F7031604350453056C0476048C04A2048B
:1000B000B504BF04D504EB04010517052A053D0569
:1000C00076057B05800585058A058F0594059905CC
:1000D0009E052506BB05C805D505E205EF05FC050F
:1000E0000906160611241FBECFEFD0E4DEBFCDBF38
:1000F00011E0A0E0B1E0EAE8F0E100E00BBF02C0EF
:1001000007900D92AC32B107D9F721E0ACE2B1E033
:1001100001C01D92A635B207E1F70E947A060C9441
:1001200043080C940000CF93DF9300D01F92CDB70B
:10013000DEB789837B836A8389818A3031F48A813F
:100140009B81BC018DE00E94930080EC90E0FC015B
:100150008081882F90E080729927892BB1F386ECFB
:1001600090E02981FC01208380E090E00F900F90C7
:100170000F90DF91CF910895CF93DF93CDB7DEB786
:1001800081E890E02BE0FC01208388E890E02DE7F7
:1001900030E0FC01318320838FE690E022E0FC0117
:1001A000208384E890E0FC011182108280910E018E
:1001B00090910F01A0911001B091110180932D0138
:1001C00090932E01A0932F01B09330018FE590E022
:1001D0002FE530E0F90120812068FC012083000038
:1001E000DF91CF910895CF93DF93CDB7DEB781E84C
:1001F00090E0FC0110820000DF91CF910895CF9331
:10020000DF93CDB7DEB781E080932C010000DF9152
:10021000CF9108951F920F9200905F000F921124CA
:1002200000905B000F922F933F934F935F936F93D8
:100230007F938F939F93AF93BF93EF93FF93CF934E
:10024000DF93CDB7DEB780912D0190912E01A09163
:100250002F01B09130010197A109B10980932D01BF
:1002600090932E01A0932F01B093300180912D0126
:1002700090912E01A0912F01B0913001892B8A2BF2
:100280008B2B91F40E94FF0080910E0190910F0141
:10029000A0911001B091110180932D0190932E0136
:1002A000A0932F01B09330010000DF91CF91FF9117
:1002B000EF91BF91AF919F918F917F916F915F91DE
:1002C0004F913F912F910F9000925B000F90009201
:1002D0005F000F901F901895CF93DF9300D000D050
:1002E000CDB7DEB769837A838B839C8389819A81BA
:1002F000AB81BC8180930E0190930F01A0931001FC
:10030000B093110180910E0190910F01A091100105
:10031000B091110180932D0190932E01A0932F0194
:10032000B093300100000F900F900F900F90DF916D
:10033000CF910895CF93DF9300D000D01F92CDB717
:10034000DEB79D838C831B8280E290E0FC0180817C
:1003500080958B838C819D818130910589F08230DD
:1003600091051CF4892B39F028C082309105A1F049
:100370000397B9F022C081E090E09D838C8323C075
:100380008B81882F90E081709927892BC9F082E0BA
:1003900090E09D838C8314C083E090E09D838C83E8
:1003A00012C08B81882F90E081709927892B51F49E
:1003B00081E090E09D838C8305C01D821C8203C078
:1003C000000001C000008C819D818130910509F4FD
:1003D000BAC08230910524F4892B09F4B6C0BAC0A2
:1003E0008230910521F0039709F4B1C0B3C0809128
:1003F0003101909132010497C0F5809131019091C3
:100400003201865E9E4FFC019081809122019817F7
:1004100009F09FC080913101909132010196909333
:100420003201809331018091310190913201049722
:1004300059F4809131019091320120912501865E1D
:100440009E4FFC0120830AC08091310190913201BE
:1004500020912401865E9E4FFC01208381E090E084
:10046000909334018093330174C080913101909155
:100470003201049768F18091310190913201079720
:1004800038F58091310190913201865E9E4FFC01DA
:10049000908180912301981709F054C08091310117
:1004A00090913201019690933201809331018091B5
:1004B00031019091320120912501865E9E4FFC0111
:1004C000208381E090E090933401809333013AC01F
:1004D00080913101909132010797D8F180913101DB
:1004E00090913201865E9E4FFC01908180912301A4
:1004F000981779F510923201109231011A821982FF
:100500000CC089819A81865E9E4F2FEFFC0120836B
:1005100089819A8101969A83898389819A81089732
:1005200080F3809131019091320120912401865E07
:100530009E4FFC01208381E090E0909334018093F2
:10054000330107C006C0000005C0000003C0000062
:1005500001C000008C819D810F900F900F900F9033
:100560000F90DF91CF910895CF93DF9300D0CDB757
:10057000DEB79A83898389819A81092E000CAA0BA0
:10058000BB0B40E050E02CE030E0841B950B2817BB
:10059000390708F489C18A5B9F4FFC010C943A0823
:1005A0008091310190913201049728F085E090E02C
:1005B0009A8389837CC181E090E09A83898377C1A3
:1005C0008091310190913201049728F085E090E00C
:1005D0009A8389836CC18091330190913401019792
:1005E00049F481E090E09A8389831092340110925B
:1005F00033015DC182E090E09A83898358C1809184
:10060000310190913201049728F085E090E09A83BF
:1006100089834DC18091330190913401019749F450
:1006200081E090E09A838983109234011092330123
:100630003EC183E090E09A83898339C18091310182
:1006400090913201049728F085E090E09A838983A5
:100650002EC18091330190913401019749F481E0DA
:1006600090E09A83898310923401109233011FC164
:1006700084E090E09A8389831AC18091310190913E
:100680003201049728F085E090E09A8389830FC1B6
:100690008091330190913401019749F481E090E019
:1006A0009A838983109234011092330100C181E052
:1006B00090E09A838983FBC080913101909132014F
:1006C000049728F481E090E09A838983F0C08091B8
:1006D000330190913401019749F485E090E09A83C9
:1006E00089831092340110923301E1C086E090E0DA
:1006F0009A838983DCC08091310190913201049703
:1007000028F481E090E09A838983D1C080913301FD
:1007100090913401019749F485E090E09A838983B0
:100720001092340110923301C2C087E090E09A83A6
:100730008983BDC08091310190913201049728F4E2
:1007400081E090E09A838983B2C0809133019091D7
:100750003401019749F485E090E09A8389831092EF
:10076000340110923301A3C088E090E09A8389831A
:100770009EC08091310190913201049728F481E06C
:1007800090E09A83898393C08091330190913401E2
:10079000019749F485E090E09A83898310923401AF
:1007A0001092330184C089E090E09A8389837FC0EE
:1007B0008091310190913201049728F481E090E01A
:1007C0009A83898374C08091330190913401019799
:1007D00049F485E090E09A83898310923401109265
:1007E000330165C08AE090E09A83898360C080917C
:1007F000310190913201049728F481E090E09A83CE
:10080000898355C08091330190913401019749F457
:1008100085E090E09A83898310923401109233012D
:1008200046C08BE090E09A83898341C0809131017A
:1008300090913201049728F481E090E09A838983B3
:1008400036C08091330190913401019749F485E0DD
:1008500090E09A838983109234011092330127C06B
:100860008CE090E09A83898322C08091310190913D
:100870003201049728F481E090E09A83898317C0BD
:100880008091330190913401019749F485E090E023
:100890009A838983109234011092330108C085E055
:1008A00090E09A83898303C01A82198200008981AB
:1008B0009A81092E000CAA0BBB0B40E050E02CE003
:1008C00030E0841B950B2817390708F4E9C08D5ACE
:1008D0009F4FFC010C943A088091310190913201B4
:1008E000865E9E4F28EFFC012083DEC0809131019F
:1008F000909132012091310130913201265E3E4FBC
:10090000F9012081222F30E0220F331F2160865E03
:100910009E4FFC012083C8C080913101909132012B
:100920002091310130913201265E3E4FF901208144
:10093000222F30E0220F331F2160865E9E4FFC0184
:100940002083B2C080913101909132012091310118
:1009500030913201265E3E4FF901208126952068B4
:10096000865E9E4FFC0120839FC080913101909153
:100970003201865E9E4F2EEFFC01208395C0809150
:100980003101909132012091310130913201265E86
:100990003E4FF9012081222F30E0220F331F2160CA
:1009A000865E9E4FFC0120837FC080913101909133
:1009B00032012091310130913201265E3E4FF90122
:1009C0002081222F30E0220F331F2160865E9E4F50
:1009D000FC01208369C08091310190913201209106
:1009E000310130913201265E3E4FF9012081222FE4
:1009F00030E0220F331F2160865E9E4FFC01208372
:100A000053C0809131019091320120913101309198
:100A10003201265E3E4FF9012081222F30E0220F65
:100A2000331F2160865E9E4FFC0120833DC0809174
:100A30003101909132012091310130913201265ED5
:100A40003E4FF901208126952068865E9E4FFC016D
:100A500020832AC08091310190913201209131018F
:100A600030913201265E3E4FF901208126952068A3
:100A7000865E9E4FFC01208317C0809131019091CA
:100A800032012091310130913201265E3E4FF90151
:100A9000208126952068865E9E4FFC01208304C03D
:100AA0001A82198201C0000089819A810F900F90EB
:100AB000DF91CF910895CF93DF9300D0CDB7DEB70C
:100AC0009A83898389819A81092E000CAA0BBB0B1A
:100AD00040E050E028E030E0841B950B28173907F0
:100AE00090F1805A9F4FFC010C943A0881E090E00D
:100AF0009A8389832BC082E090E09A83898326C001
:100B000083E090E09A83898321C084E090E09A8317
:100B100089831CC085E090E09A83898317C086E0B2
:100B200090E09A83898312C087E090E09A8389835A
:100B30000DC088E090E09A83898308C081E090E04E
:100B40009A83898303C01A821982000089819A815D
:100B5000092E000CAA0BBB0B40E050E028E030E06F
:100B6000841B950B2817390708F46DC087599F4FD0
:100B7000FC010C943A0888E290E020911201FC01FB
:100B800020838BE290E020911A01FC0120835EC05B
:100B900088E290E020911301FC0120838BE290E039
:100BA00020911B01FC01208351C088E290E020913C
:100BB0001401FC0120838BE290E020911C01FC01D8
:100BC000208344C088E290E020911501FC0120833D
:100BD0008BE290E020911D01FC01208337C088E268
:100BE00090E020911601FC0120838BE290E020919F
:100BF0001E01FC0120832AC088E290E020911701A9
:100C0000FC0120838BE290E020911F01FC012083F6
:100C10001DC088E290E020911801FC0120838BE246
:100C200090E020912001FC01208310C088E290E038
:100C300020911901FC0120838BE290E02091210199
:100C4000FC01208303C0000001C0000089819A815B
:100C50000F900F90DF91CF910895CF93DF93CDB791
:100C6000DEB72C970FB6F894DEBF0FBECDBF6D83F5
:100C70007E838F83988729873A874B875C878D810E
:100C80009E81AF81B88529853A854B855C85BC01FD
:100C9000CD010E941808DC01CB0189839A83AB83C4
:100CA000BC8389819A81AB81BC81892B8A2B8B2B58
:100CB00029F489859A85AB85BC8511C089859A857B
:100CC000AB85BC858D839E83AF83B88789819A81EC
:100CD000AB81BC8189879A87AB87BC87D0CFBC01A9
:100CE000CD012C960FB6F894DEBF0FBECDBFDF91BD
:100CF000CF9108950F931F93CF93DF93CDB7DEB7B6
:100D00002F970FB6F894DEBF0FBECDBF81E290E003
:100D1000FC01108282E290E02FEFFC0120838AE246
:100D200090E02FEFFC0120838BE290E0FC01108229
:100D300087E290E02FEFFC01208388E290E0FC0145
:100D4000108286E0E6E2F1E0DE011A9601900D9253
:100D50008A95E1F783E090E098878F838FEF89870A
:100D600089858093350180E991E0A0E0B0E080932F
:100D7000360190933701A0933801B09339018091E7
:100D8000360190913701A0913801B09139018093DB
:100D90003A0190933B01A0933C01B0933D0184EB59
:100DA00092E090933F0180933E01898580934001BA
:100DB00081E090E0A0E0B0E0809341019093420197
:100DC000A0934301B093440180914101909142016D
:100DD000A0914301B0914401809345019093460155
:100DE000A0934701B09348018BE595E090934A01A9
:100DF00080934901898580934B0181E090E0A0E0D8
:100E0000B0E080934C0190934D01A0934E01B093BC
:100E10004F0180914C0190914D01A0914E01B091F4
:100E20004F018093500190935101A0935201B093D0
:100E300053018AE991E090935501809354018A858A
:100E40009B85FC0181819281A381B4818B839C83EA
:100E5000AD83BE8381E090E09A83898325C0898138
:100E60009A81880F991F9E012F5F3F4F820F931F1A
:100E70000996FC0180819181FC01218132814381AD
:100E800054818B819C81AD81BE81BC01CD010E94CA
:100E90002D06DC01CB018B839C83AD83BE838981CE
:100EA0009A8101969A83898329813A818F819885D5
:100EB00028173907A0F28B819C81AD81BE81BC01CE
:100EC000CD010E946C010E94BC001A821982A0C050
:100ED00089819A81880F991F9E012F5F3F4F820F52
:100EE000931F0996FC0180819181FC012581368147
:100EF0004781508589819A81880F991FBE016F5F54
:100F00007F4F860F971F0996FC0180819181FC011C
:100F100081819281A381B481281739074A075B0731
:100F200009F045C089819A81880F991F9E012F5F22
:100F30003F4F820F931F0996FC0100811181898127
:100F40009A81880F991F9E012F5F3F4F820F931F39
:100F50000996FC0180819181FC012185328589817E
:100F60009A81880F991FAE014F5F5F4F840F951FC5
:100F70000996FC0180819181FC018081082E000C82
:100F8000990BF9010995F801808389819A81880F6D
:100F9000991F9E012F5F3F4F820F931F0996FC01FF
:100FA00080819181FC0115821682178210868981C9
:100FB0009A81880F991F9E012F5F3F4F820F931FC9
:100FC0000996FC016081718189819A81880F991F3E
:100FD0009E012F5F3F4F820F931F0996FC01808176
:100FE0009181FC0125813681478150858B819C81CF
:100FF000AD81BE81820F931FA41FB51FFB018583A6
:101000009683A783B08789819A8101969A83898381
:1010100029813A818F8198852817390708F458CF9C
:10102000000080912C018823E1F310922C014DCF18
:10103000A1E21A2EAA1BBB1BFD010DC0AA1FBB1FDC
:10104000EE1FFF1FA217B307E407F50720F0A21B4E
:10105000B30BE40BF50B661F771F881F991F1A94BB
:1010600069F760957095809590959B01AC01BD01E5
:10107000CF010895EE0FFF1F0024001C0BBE079048
:0A108000F691E02D0994F894FFCFDB
:10108A0000000002000000009300000000000100C0
:10109A0000008040201008040201FFFFFFFFFFFF4D
:0C10AA00FFFFF1FBF8FE350140014B0197
:00000001FF
