:100000000C9486000C94A5000C94A5000C94A500FB
:100010000C94A5000C94A5000C94A5000C94A500CC
:100020000C94A5000C94A5000C94A5000C94A500BC
:100030000C94A5000C941E010C94A5000C94A50032
:100040000C94A5000C94A5000C94A5000C94A5009C
:100050000C94A5000C94A5000C94A5000C94A5008C
:100060000C94A5000C94A5000C94A5000C94A5007C
:100070000C94A5000C94A5000C94A5000C94A5006C
:100080000C94A5000C94A5000C94A500E302F302C7
:100090001203310350036F038E03AD03CC03EB0354
:1000A0000A042904480466057F0489049F04B504F2
:1000B000C804D204E804FE0414052A053D055005D1
:1000C00089058E05930598059D05A205A705AC0534
:1000D000B1053806CE05DB05E805F50502060F0675
:1000E0001C062906610666067C06810686068B06C6
:1000F000900695069A069F066D076D07BD06D00609
:10010000E406F70623072C0736073F0711241FBE16
:10011000CFEFD0E4DEBFCDBF11E0A0E0B1E0ECE670
:10012000F3E100E00BBF02C007900D92AE32B107C1
:10013000D9F721E0AEE2B1E001C01D92A736B207C7
:10014000E1F70E94C6070C94B4090C940000CF9309
:10015000DF9300D01F92CDB7DEB789837B836A839C
:1001600089818A3031F48A819B81BC018DE00E94B3
:10017000A70080EC90E0FC018081882F90E08072E5
:100180009927892BB1F386EC90E02981FC0120832B
:1001900080E090E00F900F900F90DF91CF91089545
:1001A000CF93DF93CDB7DEB781E890E02BE0FC0181
:1001B000208388E890E02DE730E0FC013183208344
:1001C0008FE690E022E0FC01208384E890E0FC01CF
:1001D0001182108280910E0190910F01A091100167
:1001E000B091110180932F0190933001A0933101C0
:1001F000B09332018FE590E02FE530E0F9012081E6
:100200002068FC0120830000DF91CF910895CF93F7
:10021000DF93CDB7DEB781E890E0FC0110820000EB
:10022000DF91CF910895CF93DF93CDB7DEB781E013
:1002300080932E010000DF91CF9108951F920F92BD
:1002400000905F000F92112400905B000F922F939B
:100250003F934F935F936F937F938F939F93AF934E
:10026000BF93EF93FF93CF93DF93CDB7DEB780912A
:100270002F0190913001A0913101B091320101978D
:10028000A109B10980932F0190933001A09331010E
:10029000B093320180912F0190913001A0913101F2
:1002A000B0913201892B8A2B8B2B91F40E94130180
:1002B00080910E0190910F01A0911001B091110158
:1002C00080932F0190933001A0933101B0933201BC
:1002D0000000DF91CF91FF91EF91BF91AF919F917E
:1002E0008F917F916F915F914F913F912F910F90DF
:1002F00000925B000F9000925F000F901F90189586
:10030000CF93DF9300D000D0CDB7DEB769837A8377
:100310008B839C8389819A81AB81BC8180930E0100
:1003200090930F01A0931001B093110180910E01E1
:1003300090910F01A0911001B091110180932F01B4
:1003400090933001A0933101B093320100000F90DF
:100350000F900F900F90DF91CF910895CF93DF937F
:1003600000D01F92CDB7DEB79B838A83198280E2CB
:1003700090E0FC018081809589838A819B81813016
:10038000910589F0823091051CF4892B39F028C041
:1003900082309105A1F00397B9F022C081E090E08E
:1003A0009B838A8323C08981882F90E0817099275D
:1003B000892BC9F082E090E09B838A8314C083E09C
:1003C00090E09B838A8312C08981882F90E081709E
:1003D0009927892B51F481E090E09B838A8305C0A3
:1003E0001B821A8203C0000001C000008A819B8129
:1003F0008130910509F4ADC08230910524F4892B38
:1004000009F4A9C0ADC08230910521F0039709F429
:10041000A4C0A6C08091330190913401049708F0E4
:100420003EC08091330190913401865E9E4FFC0165
:10043000908180912201981759F580913301909114
:1004400034010196909334018093330180913301FC
:1004500090913401049759F48091330190913401C3
:1004600020912501865E9E4FFC0120830AC0809169
:1004700033019091340120912401865E9E4FFC014E
:10048000208381E090E0909336018093350167C02E
:1004900081E090E090933A018093390160C08091AF
:1004A000330190913401049798F180913301909138
:1004B0003401079768F58091330190913401865E8D
:1004C0009E4FFC019081809123019817D1F4809177
:1004D000330190913401019690933401809333015C
:1004E000809133019091340120912501865E9E4FC9
:1004F000FC01208381E090E09093360180933501E8
:1005000027C081E090E090933A018093390120C0A8
:100510008091330190913401079708F18091330164
:1005200090913401865E9E4FFC0190818091230161
:10053000981739F481E090E0909338018093370167
:100540000EC081E090E090933A018093390107C09A
:1005500006C0000005C0000003C0000001C000008C
:100560008A819B810F900F900F90DF91CF9108951A
:10057000CF93DF9300D0CDB7DEB79A838983809184
:10058000370190913801019731F0809139019091B4
:100590003A01019719F489819A819BC289819A81D4
:1005A000092E000CAA0BBB0B40E050E02CE030E021
:1005B000841B950B2817390708F489C18A5B9F4F64
:1005C000FC010C94AB0980913301909134010497A4
:1005D00028F085E090E09A8389837CC181E090E0F7
:1005E0009A83898377C18091330190913401049774
:1005F00028F085E090E09A8389836CC18091350171
:1006000090913601019749F481E090E09A838983C3
:1006100010923601109235015DC182E090E09A831C
:10062000898358C18091330190913401049728F057
:1006300085E090E09A8389834DC180913501909146
:100640003601019749F481E090E09A838983109202
:100650003601109235013EC183E090E09A83898390
:1006600039C18091330190913401049728F085E0DD
:1006700090E09A8389832EC1809135019091360153
:10068000019749F481E090E09A83898310923601C2
:10069000109235011FC184E090E09A8389831AC1CA
:1006A0008091330190913401049728F085E090E027
:1006B0009A8389830FC1809135019091360101970A
:1006C00049F481E090E09A83898310923601109278
:1006D000350100C181E090E09A838983FBC080915D
:1006E000330190913401049728F481E090E09A83DB
:1006F0008983F0C08091350190913601019749F4CA
:1007000085E090E09A83898310923601109235013A
:10071000E1C086E090E09A838983DCC08091330158
:1007200090913401049728F481E090E09A838983C2
:10073000D1C08091350190913601019749F485E04F
:1007400090E09A8389831092360110923501C2C0DD
:1007500087E090E09A838983BDC0809133019091B6
:100760003401049728F481E090E09A838983B2C031
:100770008091350190913601019749F485E090E030
:100780009A8389831092360110923501A3C088E0C4
:1007900090E09A8389839EC08091330190913401C7
:1007A000049728F481E090E09A83898393C0809134
:1007B000350190913601019749F485E090E09A83E4
:1007C0008983109236011092350184C089E090E04F
:1007D0009A8389837FC0809133019091340104977B
:1007E00028F481E090E09A83898374C08091350178
:1007F00090913601019749F485E090E09A838983CE
:10080000109236011092350165C08AE090E09A831B
:10081000898360C08091330190913401049728F45A
:1008200081E090E09A83898355C080913501909151
:100830003601019749F485E090E09A83898310920C
:1008400036011092350146C08BE090E09A8389838F
:1008500041C08091330190913401049728F481E0E4
:1008600090E09A83898336C080913501909136015A
:10087000019749F485E090E09A83898310923601CC
:100880001092350127C08CE090E09A83898322C0C2
:100890008091330190913401049728F481E090E035
:1008A0009A83898317C08091350190913601019711
:1008B00049F485E090E09A83898310923601109282
:1008C000350108C085E090E09A83898303C01A82CD
:1008D0001982000089819A81092E000CAA0BBB0B9A
:1008E00040E050E02CE030E0841B950B28173907DE
:1008F00008F4E9C08D5A9F4FFC010C94AB0980911C
:10090000330190913401865E9E4F28EFFC012083D5
:10091000DEC08091330190913401209133013091F8
:100920003401265E3E4FF9012081222F30E0220F54
:10093000331F2160865E9E4FFC012083C8C08091DA
:100940003301909134012091330130913401265EBE
:100950003E4FF9012081222F30E0220F331F21600A
:10096000865E9E4FFC012083B2C08091330190913E
:1009700034012091330130913401265E3E4FF9015C
:10098000208126952068865E9E4FFC0120839FC0B3
:100990008091330190913401865E9E4F2EEFFC01D1
:1009A000208395C0809133019091340120913301CF
:1009B00030913401265E3E4FF9012081222F30E034
:1009C000220F331F2160865E9E4FFC0120837FC073
:1009D00080913301909134012091330130913401A1
:1009E000265E3E4FF9012081222F30E0220F331F77
:1009F0002160865E9E4FFC01208369C08091330197
:100A0000909134012091330130913401265E3E4FA4
:100A1000F9012081222F30E0220F331F2160865EF2
:100A20009E4FFC01208353C080913301909134018B
:100A30002091330130913401265E3E4FF90120812F
:100A4000222F30E0220F331F2160865E9E4FFC0173
:100A500020833DC080913301909134012091330176
:100A600030913401265E3E4FF901208126952068A1
:100A7000865E9E4FFC0120832AC0809133019091B5
:100A800034012091330130913401265E3E4FF9014B
:100A9000208126952068865E9E4FFC01208317C02A
:100AA00080913301909134012091330130913401D0
:100AB000265E3E4FF901208126952068865E9E4F76
:100AC000FC01208304C01A82198201C000008981C0
:100AD0009A810F900F90DF91CF910895CF93DF937C
:100AE00000D0CDB7DEB79A83898389819A81092E98
:100AF000000CAA0BBB0B40E050E028E030E0841B68
:100B0000950B2817390790F1805A9F4FFC010C94E0
:100B1000AB0981E090E09A8389832BC082E090E06A
:100B20009A83898326C083E090E09A83898321C0D9
:100B300084E090E09A8389831CC085E090E09A83EA
:100B4000898317C086E090E09A83898312C087E08A
:100B500090E09A8389830DC088E090E09A8389832E
:100B600008C081E090E09A83898303C01A821982C9
:100B7000000089819A81092E000CAA0BBB0B40E072
:100B800050E028E030E0841B950B2817390708F463
:100B90006DC087599F4FFC010C94AB0988E290E02F
:100BA00020911201FC0120838BE290E020911A0138
:100BB000FC0120835EC088E290E020911301FC01DB
:100BC00020838BE290E020911B01FC01208351C027
:100BD00088E290E020911401FC0120838BE290E0F8
:100BE00020911C01FC01208344C088E290E0209108
:100BF0001501FC0120838BE290E020911D01FC0196
:100C0000208337C088E290E020911601FC01208308
:100C10008BE290E020911E01FC0120832AC088E233
:100C200090E020911701FC0120838BE290E020915D
:100C30001F01FC0120831DC088E290E02091180173
:100C4000FC0120838BE290E020912001FC012083B5
:100C500010C088E290E020911901FC0120838BE212
:100C600090E020912101FC01208303C0000001C01D
:100C7000000089819A810F900F90DF91CF910895A4
:100C8000CF93DF93CDB7DEB72C970FB6F894DEBFC6
:100C90000FBECDBF9C878B878B859C85092E000C52
:100CA000AA0BBB0B40E050E029E030E0841B950B21
:100CB0002817390708F448C08E589F4FFC010C9440
:100CC000AB0981E090E09C878B8742C0809137011F
:100CD00090913801019729F482E090E09C878B87FE
:100CE00037C08091390190913A01019781F586E0F2
:100CF00090E09C878B872CC083E090E09C878B875B
:100D000027C084E090E09C878B8722C085E090E03C
:100D10009C878B871DC081E090E09C878B8718C0E3
:100D200087E090E09C878B8713C088E090E09C87E9
:100D30008B870EC089E090E09C878B8709C081E09B
:100D400090E09C878B8704C01C861B8601C0000036
:100D50008B859C85092E000CAA0BBB0B40E050E054
:100D600029E030E0841B950B2817390708F4B3C03D
:100D700084589F4FFC010C94AB091A8219820BC056
:100D800089819A81865E9E4FFC01108289819A81B9
:100D900001969A83898389819A81089788F39EC0F6
:100DA0001C821B820CC08B819C81865E9E4F2FEF24
:100DB000FC0120838B819C8101969C838B838B819A
:100DC0009C81089780F38AC01E821D820BC08D8192
:100DD0009E81865E9E4FFC0110828D819E810196D0
:100DE0009E838D838D819E81089788F377C01092B2
:100DF00034011092330118861F820CC08F819885B0
:100E0000865E9E4F2FEFFC0120838F81988501968F
:100E100098878F838F819885089780F3809133011D
:100E20009091340120912401865E9E4FFC01208325
:100E300081E090E090933601809335011092380163
:100E4000109237014BC08091330190913401865E3E
:100E50009E4FFC01108242C0809133019091340179
:100E6000865E9E4F2FEFFC01208338C080913301B6
:100E700090913401865E9E4FFC0110822FC010922B
:100E80003401109233011A8619860CC089859A851F
:100E9000865E9E4F2FEFFC01208389859A850196FF
:100EA0009A87898789859A85089780F3809133018D
:100EB0009091340120912401865E9E4FFC01208395
:100EC00081E090E0909336018093350110923A01D1
:100ED0001092390103C0000001C000008B859C8581
:100EE0002C960FB6F894DEBF0FBECDBFDF91CF9129
:100EF0000895CF93DF93CDB7DEB72C970FB6F89454
:100F0000DEBF0FBECDBF6D837E838F839887298719
:100F10003A874B875C878D819E81AF81B885298513
:100F20003A854B855C85BC01CD010E948909DC01B5
:100F3000CB0189839A83AB83BC8389819A81AB81FE
:100F4000BC81892B8A2B8B2B29F489859A85AB85CB
:100F5000BC8511C089859A85AB85BC858D839E83B0
:100F6000AF83B88789819A81AB81BC8189879A8751
:100F7000AB87BC87D0CFBC01CD012C960FB6F894BF
:100F8000DEBF0FBECDBFDF91CF9108950F931F93AA
:100F9000CF93DF93CDB7DEB761970FB6F894DEBF7E
:100FA0000FBECDBF81E290E0FC01108282E290E0B2
:100FB0002FEFFC0120838AE290E02FEFFC012083D9
:100FC0008BE290E0FC01108287E290E02FEFFC01C1
:100FD000208388E290E0FC01108288E0E6E2F1E004
:100FE000DE011A9601900D928A95E1F784E090E077
:100FF00098878F838FEF8987898580933B0188EC61
:1010000090E0A0E0B0E080933C0190933D01A0937C
:101010003E01B0933F0180913C0190913D01A09130
:101020003E01B0913F018093400190934101A09314
:101030004201B093430188EB92E090934501809385
:10104000440189858093460181E090E0A0E0B0E012
:101050008093470190934801A0934901B0934A01BE
:101060008091470190914801A0914901B0914A01B6
:1010700080934B0190934C01A0934D01B0934E018E
:101080008EE695E09093500180934F01898580937F
:10109000510181E090E0A0E0B0E080935201909394
:1010A0005301A0935401B093550180915201909146
:1010B0005301A0915401B091550180935601909332
:1010C0005701A0935801B09359018EEA91E0909393
:1010D0005B0180935A01898580935C0188E592E0E9
:1010E000A0E0B0E080935D0190935E01A0935F016A
:1010F000B093600180915D0190915E01A0915F01CC
:10110000B09160018093610190936201A0936301AB
:10111000B093640180E496E090936601809365014A
:101120008A859B85FC0181819281A381B4818B8317
:101130009C83AD83BE8381E090E09A83898325C040
:1011400089819A81880F991F9E012F5F3F4F820FDF
:10115000931F0996FC0180819181FC0121813281DC
:10116000438154818B819C81AD81BE81BC01CD01C5
:101170000E947907DC01CB018B839C83AD83BE8306
:1011800089819A8101969A83898329813A818F8105
:10119000988528173907A0F28B819C81AD81BE818B
:1011A000BC01CD010E9480010E94D0001A821982E8
:1011B000A0C089819A81880F991F9E012F5F3F4FA0
:1011C000820F931F0996FC0180819181FC0125818A
:1011D00036814781508589819A81880F991FBE0188
:1011E0006F5F7F4F860F971F0996FC018081918169
:1011F000FC0181819281A381B481281739074A07B4
:101200005B0709F045C089819A81880F991F9E016B
:101210002F5F3F4F820F931F0996FC0100811181C0
:1012200089819A81880F991F9E012F5F3F4F820FFE
:10123000931F0996FC0180819181FC0121853285F3
:1012400089819A81880F991FAE014F5F5F4F840F8C
:10125000951F0996FC0180819181FC018081082EF7
:10126000000C990BF9010995F801808389819A8115
:10127000880F991F9E012F5F3F4F820F931F099682
:10128000FC0180819181FC011582168217821086F3
:1012900089819A81880F991F9E012F5F3F4F820F8E
:1012A000931F0996FC016081718189819A81880F61
:1012B000991F9E012F5F3F4F820F931F0996FC01DC
:1012C00080819181FC0125813681478150858B8108
:1012D0009C81AD81BE81820F931FA41FB51FFB01AE
:1012E00085839683A783B08789819A8101969A83A3
:1012F000898329813A818F8198852817390708F4D5
:1013000058CF000080912E018823E1F310922E0126
:101310004DCFA1E21A2EAA1BBB1BFD010DC0AA1FB7
:10132000BB1FEE1FFF1FA217B307E407F50720F04E
:10133000A21BB30BE40BF50B661F771F881F991FC9
:101340001A9469F760957095809590959B01AC0112
:10135000BD01CF010895EE0FFF1F0024001C0BBE3E
:0C1360000790F691E02D0994F894FFCF5F
:10136C000000000200000000A700000000000100C7
:10137C0000008040201008040201FFFFFFFFFFFF68
:0E138C00FFFFF1FBF8FE3B01460151015C0141
:00000001FF
